:020000040000FA
:08000000803102288731E42F52
:10000A0000307005F80000307105F9008030720583
:10001A00FA007F307305FB007B087A0479047804C0
:10002A00031D1F280030F3000030F2000030F100F9
:10003A000030F00000307405F80000307505F90052
:10004A0080307605FA007F307705FB007B087A045A
:10005A0079047804031D39280030F7000030F600CF
:10006A000030F5000030F40077087306031D4728B6
:10007A0076087206031D472875087106031D47286E
:10008A007408700603194B280310080003140800AB
:10009A002000D200D21F8729D209D20A5208803AF8
:1000AA00123E031C03290A30F7000030F8005208F8
:1000BA00F200F301F21BF3036430F0000030F100A8
:1000CA009031292080317108FA007008F9009031C6
:1000DA00C02080317708093E2000C200C301C23522
:1000EA00C30DC235C30D3430420784009830433DF6
:1000FA008500003FC400013FC500023FC600033F20
:10010A00C7004708A7004608A6004508A5004408F6
:10011A00A4006430F7000030F8005208F900FA0130
:10012A00F91BFA039031C02080317708123E200073
:10013A00C800C901C835C90DC835C90D34304807CA
:10014A0084009830493D8500003FCA00013FCB003A
:10015A00023FCC00033FCD004D08AB004C08AA007B
:10016A004B08A9004A08A8008A3158228031200089
:10017A002708D1002608D0002508CF002408CE0081
:10018A000A30F0000030F1005208F200F301F21BCD
:10019A00F30390312920803170082000C200C30186
:1001AA00C235C30DC235C30D3430420784009830BE
:1001BA00433D8500003FC400013FC500023FC60021
:1001CA00033FC7004708A7004608A6004508A50040
:1001DA004408A4005108AB005008AA004F08A9001F
:1001EA004E08A8008A31582220002708C100260894
:1001FA00C0002508BF002408BE0008005208803A43
:10020A00753E031C69290A30F0000030F1005208DB
:10021A00F200F301F21BF3039031292080317008B8
:10022A002000C200C301C235C30DC235C30D34302C
:10023A00420784009830433D8500003FC400013FD7
:10024A00C500023FC600033FC7004708A70046088B
:10025A00A6004508A5004408A4000A30F7000030AB
:10026A00F8005208F900FA01F91BFA039031C0208C
:10027A0080317708093E2000C800C901C835C90D78
:10028A00C835C90D3430480784009830493D850087
:10029A00003FCA00013FCB00023FCC00033FCD0024
:1002AA004D08AB004C08AA004B08A9004A08A80050
:1002BA008A31582220002708C1002608C0002508D4
:1002CA00BF002408BE0008005208C200C301C2359C
:1002DA00C30DC235C30D3430420784009830433D04
:1002EA008500003FC400013FC500023FC600033F2E
:1002FA00C7004708C1004608C0004508BF004408B7
:10030A00BE0008005208803A123E031C372A0A30FF
:10031A00F7000030F8005208F200F301F21BF30371
:10032A006430F0000030F1009031292080317108EA
:10033A00FA007008F9009031C02080317708093E30
:10034A002000C200C301C235C30DC235C30D00303F
:10035A00420784009830433D8500003FC400013FB6
:10036A00C500023FC600033FC7004708A70046086A
:10037A00A6004508A5004408A4006430F700003030
:10038A00F8005208F900FA01F91BFA039031C0206B
:10039A0080317708123E2000C800C901C835C90D4E
:1003AA00C835C90D0030480784009830493D85009A
:1003BA00003FCA00013FCB00023FCC00033FCD0003
:1003CA004D08AB004C08AA004B08A9004A08A8002F
:1003DA008A315822803120002708D1002608D0000F
:1003EA002508CF002408CE000A30F0000030F100C2
:1003FA005208F200F301F21BF303903129208031F5
:10040A0070082000C200C301C235C30DC235C30D36
:10041A000030420784009830433D8500003FC40005
:10042A00013FC500023FC600033FC7004708A700B7
:10043A004608A6004508A5004408A4005108AB00D8
:10044A005008AA004F08A9004E08A8008A3158226D
:10045A0020002708C1002608C0002508BF0024087C
:10046A00BE0008005208803A753E031C9D2A0A30D5
:10047A00F0000030F1005208F200F301F21BF3031E
:10048A0090312920803170082000C200C301C23592
:10049A00C30DC235C30D0030420784009830433D76
:1004AA008500003FC400013FC500023FC600033F6C
:1004BA00C7004708A7004608A6004508A500440843
:1004CA00A4000A30F7000030F8005208F900FA01D7
:1004DA00F91BFA039031C02080317708093E2000C9
:1004EA00C800C901C835C90DC835C90D003048074B
:1004FA0084009830493D8500003FCA00013FCB0087
:10050A00023FCC00033FCD004D08AB004C08AA00C7
:10051A004B08A9004A08A8008A3158222000270857
:10052A00C1002608C0002508BF002408BE00080034
:10053A005208C200C301C235C30DC235C30D003013
:10054A00420784009830433D8500003FC400013FC4
:10055A00C500023FC600033FC7004708C10046085E
:10056A00C0004508BF004408BE0008002100D000B2
:10057A0020006E082100AF0020006D082100AE00A7
:10058A002000ED0A0319EE0A21002E0884002F0824
:10059A0085000008B0003008CF004F080319E22F89
:1005AA0025304F060319012B500A860087011600D1
:1005BA0001040319EE2A4F08AE002E08F100500A72
:1005CA0086008701413F8A00403F0A0082312100AC
:1005DA00BD2A4F08AE005008860087010108860030
:1005EA00013087002E0881000130AE0050088600D5
:1005FA0087012E088107BD2ACD01CE01BD01BE01AA
:10060A000D2B21003D1501302000ED070030EE3D95
:10061A0020006D0884006E0885000008303A03192E
:10062A00062B172B6D0884006E0885000008883198
:10063A0000208231031CE12B2100CD01CE010A30BA
:10064A00F0000030F10021004E08F3004D08F200DE
:10065A009D31D325823171082100CE007008CD006A
:10066A0020006D0884006E0885000008D03E210035
:10067A00AE00FF3003180030AF002E08CD072F0858
:10068A00CE3D01302000ED070030EE3D6D088400BC
:10069A006E0885000008883100208231031CE12B96
:1006AA00242B3E15012C4E083A02031D5E2B4D08E1
:1006BA0039020318652B3908CD023A08CE3B672B5D
:1006CA00CD01CE01FF302100CD07FF30CE3D4D0ACE
:1006DA0003194E0A0319CD2B500A8600870116000A
:1006EA0001040319852B2030AE002E08F100500AB0
:1006FA0086008701413F8A00403F0A008331672B09
:10070A002030AE00500886008701010886000130BB
:10071A0087002E0881000130AE005008860087014C
:10072A002E088107672B500A8600870116000104EC
:10073A000319B42B3808860087010108AE002E0879
:10074A00F100500A86008701413F8A00403F0A00B3
:10075A00833101302100AE002E08B807CD2B3808AE
:10076A00860087010108AE0050088600870101084B
:10077A008600013087002E0881000130AE002E0865
:10078A00B8070130AE005008860087012E0881079D
:10079A000130B9020030BA3B390A031D982B3A0AD4
:1007AA000319BD2A982BCF30AE002E08B8000130AD
:1007BA00B9000030BA00582B20006E082100AF00A3
:1007CA0020006D082100AE002000ED0A0319EE0A90
:1007DA0021002E0884002F0885000008CF00003A67
:1007EA000319E22F643A0319012C023A0319562B12
:1007FA000F3A0319012CD82B00303D05AE00073003
:10080A003E05AF002E082F048E3103193D2E063007
:10081A00BB000030BC0020006F0886008701010879
:10082A008400850104308107003F2100C900013F8F
:10083A00CA00023FCB00033FCC004C08F3004B0830
:10084A00F2004A08F1004908F0000030F7000030D1
:10085A00F6000030F5000030F40092312D2282318A
:10086A000318502C21004C08F3004B08F2004A08E8
:10087A00F1004908F0009D31A52582317308210055
:10088A00CC007208CB007108CA007008C900033096
:10089A00BD040030BE042100C301C4014C08F300AA
:1008AA004B08F2004A08F1004908F0000030F7004E
:1008BA000030F6000030F5000030F40080310520E9
:1008CA0082310318182D031021004B0D4C0D823E66
:1008DA00C300FF3003180030C400FF30C307FF30E5
:1008EA00C43D0330F0000030F1004408F30043082F
:1008FA00F2009D31D325823171082100C4007008AD
:10090A00C3000A30F7000030F8004408FA00430830
:10091A00F9009031C020823178082100C40077089C
:10092A00C300C41F9C2CFF30C307FF30C43D4303E0
:10093A00FF3A80314D208231200041082100C80051
:10094A00200040082100C70020003F082100C600FF
:10095A0020003E082100C5004C082000A700210005
:10096A004B082000A60021004A082000A50021000B
:10097A0049082000A400210048082000AB002100FB
:10098A0047082000AA00210046082000A9002100EB
:10099A0045082000A8008A31582282312000270801
:1009AA002100C800200026082100C70020002508D1
:1009BA002100C600200024082100C5004808F300D1
:1009CA004708F2004608F1004508F0003F30F700FA
:1009DA008030F6000030F5000030F40092312D220C
:1009EA0082310318FD2CFF302100C307FF30172D79
:1009FA0021004808F3004708F2004608F1004508BC
:100A0A00F0004130F7002030F6000030F5000030E9
:100A1A00F40092312D228231031C182D013021005D
:100A2A00C3070030C43D21003C08803AAE00803044
:100A3A002E02031D222D0D303B020318552D2100D5
:100A4A003B0896317F26823120004108D4004008B5
:100A5A00D3003F08D2003E08D10021004C082000F4
:100A6A00D80021004B082000D70021004A082000A6
:100A7A00D600210049082000D5008831762082312D
:100A8A00200054082100CC00200053082100CB008C
:100A9A00200052082100CA00200051082100C90084
:100AAA0021004408803AAE0080302E02031D5F2DDB
:100ABA000A30430203189D2D21004C08F3004B080D
:100ACA00F2004A08F1004908F0000030F70000304F
:100ADA00F6000030F5000030F40080310520823144
:100AEA000318F32D21004C082000D60021004B08E2
:100AFA002000D50021004A082000D400210049081E
:100B0A002000D3009131C7218231200056085504B4
:100B1A0054045304031DF32D21004408803AAE0007
:100B2A0080302E02031D9B2D02304302031CF32D3D
:100B3A0021004808F3004708F2004608F10045087A
:100B4A00F0004030F7008930F6007030F5005F3071
:100B5A00F40092312D2282310318B52DF730B62DCB
:100B6A00F8302100C307FF30C43D430880314D20CF
:100B7A008231200041082100C800200040082100DD
:100B8A00C70020003F082100C60020003E082100BF
:100B9A00C5004C08F3004B08F2004A08F100490866
:100BAA00F0004808F7004708F6004608F50045082F
:100BBA00F4009331CE23823173082100C2007208F7
:100BCA00C1007108C0007008BF000030CC000030BE
:100BDA00CB000030CA000030C900412E21004C0869
:100BEA002000D60021004B082000D50021004A0829
:100BFA002000D400210049082000D3009131C721E8
:100C0A008231200056082100C20020005508210028
:100C1A00C100200054082100C00020005308210010
:100C2A00BF004208FA004108F9004008F8003F08EE
:100C3A00F70000309331382382317A082100A90065
:100C4A007908A8007808A7007708A6004C08AD0024
:100C5A004B08AC004A08AB004908AA009F310E278E
:100C6A00823121002908CC002808CB002708CA00B5
:100C7A002608C900C301C401CF01CF0A0A304F06B2
:100C8A000319742E4F08AE00AF01AE35AF0DAE3565
:100C9A00AF0D68302E07840098302F3D8500003F45
:100CAA00B000013FB100023FB200033FB300330876
:100CBA004202031D6A2E32084102031D6A2E3108C0
:100CCA004002031D6A2E30083F02031C742E0130B5
:100CDA00AE002E08CF070A304F06031D472E4F08D5
:100CEA003B07AE003C0803183C0AAF0043082E0736
:100CFA00B00044082F3DB1003008CD023108CE3B88
:100D0A003B083C0403198D2EFF30CD07FF30CE3D42
:100D1A0003303D05AE0000303E05AF002E082F041B
:100D2A0003199B2EFF30CD07FF30CE3D3D1D322FDC
:100D3A0003303D05AE0000303E05AF002E082F04FB
:100D4A000319CD2E500A86008701160001040319E3
:100D5A00BB2E2D30AE002E08F100500A8600870106
:100D6A00413F8A00403F0A008631CD2E2D30AE0029
:100D7A0050088600870101088600013087002E0886
:100D8A0081000130AE005008860087012E088107D5
:100D9A0021004E08803AAE0080302E02031DD72E65
:100DAA0001304D02031C6E2F2100500A8600870174
:100DBA00160001040319EE2E3030AE002E08F100A1
:100DCA00500A86008701413F8A00403F0A00863167
:100DDA00002F3030AE0050088600870101088600D7
:100DEA00013087002E0881000130AE0050088600CD
:100DFA0087012E088107FF302100CD07FF30CE3D45
:100E0A00CD2E2100500A860087011600010403191D
:100E1A001B2F2030AE002E08F100500A86008701F1
:100E2A00413F8A00403F0A0087312D2F2030AE0013
:100E3A0050088600870101088600013087002E08C5
:100E4A0081000130AE005008860087012E08810714
:100E5A00FF302100CD07FF30CE3D4E08803AAE006C
:100E6A0080302E02031D3B2F01304D020318062F3E
:100E7A00033021003D05AE0000303E05AF002E08CC
:100E8A002F0403196E2F500A8600870116000104E9
:100E9A0003195C2F2D30AE002E08F100500A86008F
:100EAA008701413F8A00403F0A0087316E2F2D306B
:100EBA00AE005008860087010108860001308700CD
:100ECA002E0881000130AE005008860087012E08E6
:100EDA00810701302100CF024F0A8C310319B02C4F
:100EEA004F08AE00AF01AE35AF0DAE35AF0D68306D
:100EFA002E07840098302F3D8500003FF000013F07
:100F0A00F100023FF200033FF3004208F7004108F4
:100F1A00F6004008F5003F08F40090316E20823157
:100F2A0073082100C8007208C7007108C60070085B
:100F3A00C50000302000A3000030A2000030A1004C
:100F4A000A30A000210048082000A7002100470815
:100F5A002000A600210046082000A500210045081F
:100F6A002000A4009F31BD278231200023082100E0
:100F7A00C800200022082100C70020002108210003
:100F8A00C600200020082100C500500A86008701FB
:100F9A00160001040319DF2F4508303EAE002E0863
:100FAA00F100500A86008701413F8A00403F0A004B
:100FBA0087316E2F4508303E5D2F8F31FA2F6F3003
:100FCA0084009D30850021001200E7001200E8002D
:100FDA001200E9001200EA001200EB00DD01DE0156
:100FEA00DF01E001E101E201E301E401E501E601DB
:100FFA00200088310E28F100F0013A3071020318FE
:10100A000C2830307102031C0C28F001F00A700C15
:10101A0008009D319C258831013091311221883197
:10102A00B6302100D1009830D2009D31EE258831AA
:10103A00C530F300DC30F2005030F1000030F0002F
:10104A009D31B8258831E8309E31A62688316A2834
:10105A000A309F317C278831210036082200D900C6
:10106A00210035082200D800210034082200D700C8
:10107A00210033082200D600C8302100D100983060
:10108A00D2009D31EE258831FB302100D100983005
:10109A00D200220059082100D60022005808210057
:1010AA00D500220057082100D4002200560821004A
:1010BA00D300203090310620883120302100D10021
:1010CA000130D2009D31EE2588319D31802588314D
:1010DA00003A031D2D28A4302100D1009830D200F7
:1010EA006728200054088039D9005908E10054358E
:1010FA00D9005908E300D31B631463080319932822
:10110A00630A031D90280030D4000030D300003059
:10111A00D2000030D100D317D4019B280030D4006C
:10112A000030D3000030D2000030D1005808803996
:10113A00D9005908E20062086106031D6117583593
:10114A00D9005908E200D71B621462080319BB28A8
:10115A00620A031DB8280030D8000030D7000030DA
:10116A00D6000030D500D717D801C3280030D800E0
:10117A000030D7000030D6000030D5006308620284
:10118A0003180929611FCD288030D9005908E106C2
:10119A006308D9005908E4006208D9005908E30035
:1011AA006408D9005908E2005108D9005908E40036
:1011BA005508D9005908D1006408D9005908D50042
:1011CA005208D9005908E4005608D9005908D20033
:1011DA006408D9005908D6005308D9005908E40010
:1011EA005708D9005908D3006408D9005908D7000C
:1011FA005408D9005908E4005808D9005908D400FD
:10120A006408D9005908D800E4016208D900DA0153
:10121A005A08DC0063085902DB00031CDC035C0883
:10122A00803ADD0080305D02031D1D291A305B0201
:10123A00031C512920005408530452045104031971
:10124A002829013029290030D9005908E400003042
:10125A00D4000030D3000030D2000030D100620840
:10126A00D9005908E3005629641C4129643601381B
:10127A00D9005908E40043290310E40C5118E41773
:10128A000130D900D437D30CD20CD10CD90B472951
:10129A000130D9005908E307200062086302031CE1
:1012AA003929611B87296308031D64290030D4008A
:1012BA000030D3000030D2000030D10008005508B9
:1012CA00D1075608D23D5708D33D5808D43D541C7F
:1012DA00012A641C762964360138D9005908E400C9
:1012EA0078290310E40C5118E4170130D900D437D7
:1012FA00D30CD20CD10CD90B7C290130D900590856
:10130A00E307012A5408803AD9005808803A59025A
:10131A00031D992957085302031D99295608520299
:10132A00031D9929550851020318D129FF30D90004
:10133A00FF30DA00FF30DB00FF30DC0051085502D5
:10134A00DD005208563BDE005308573BDF005408C5
:10135A00583BE0005D08D9075E08DA3D5F08DB3DCF
:10136A006008DC3D5C08D4005B08D3005A08D20050
:10137A005908D1008030D9005908E106E409E40A85
:10138A006408031DD9290130D1070030D23D00304D
:10139A00D33D0030D43DD9295508D1025608D23B55
:1013AA005708D33B5808D43B5408530452045104F9
:1013BA00031DFF296408031DFF290030D4000030F3
:1013CA00D3000030D2000030D10008000130D135FE
:1013DA00D20DD30DD40D890BEC29E41B5114641CD6
:1013EA00F8290314F9290310E40D63080319FF29E6
:1013FA000130E302D31FEB29E201E41F0C2A64083F
:10140A007F39031951180A2A0C2AE201E20A6208F2
:10141A000319382A0130D1070030D23D0030D33DBC
:10142A000030D43D541C382A5108D9005208DA0039
:10143A005308DB005408DC000130DD00DC37DB0C2C
:10144A00DA0CD90CDD0B232A5C08D4005B08D30024
:10145A005A08D2005908D100630A0319382A013000
:10146A00D9005908E307630A031D6308031D482AC4
:10147A000030D4000030D3000030D2000030D10058
:10148A0063080319E101631C4C2AD317502A7F30E1
:10149A00D9005908D3056336D9005908D400E11F89
:1014AA000800D4170800200027088039AC002C084F
:1014BA00B1002735AC002C08B700A61B3714370833
:1014CA000319742A370A031D722A0030A700003054
:1014DA00A6000030A5000030A400A6177C2A003020
:1014EA00A7000030A6000030A5000030A4002B0899
:1014FA008039AC002C08B1062B35AC002C08B6009C
:10150A00AA1B361436080319972A360A031D952A88
:10151A000030AB000030AA000030A9000030A8005B
:10152A00AA179F2A0030AB000030AA000030A90099
:10153A000030A8003608031D3708031DAD2A003005
:10154A00A7000030A6000030A5000030A400080063
:10155A002408AC002C08F0002A089E3109268A319A
:10156A0071082000BD007008BC003C08AC00AD0149
:10157A00AE01AF012F08B5002E08B4002D08B30044
:10158A002C08B2003D08AC00AD01AE01AF012F0836
:10159A00BB002E08BA002D08B9002C08B80025088F
:1015AA00AC002C08F00029089E3109268A317108FE
:1015BA002000BD007008BC003C08AC00AD01AE01C3
:1015CA00AF012C08B2072D08B33D2E08B43D2F08F1
:1015DA00B53D3D08AC00AD01AE01AF012C08B8071E
:1015EA002D08B93D2E08BA3D2F08BB3D2608AC0090
:1015FA002C08F00028089E3109268A31710820003B
:10160A00BD007008BC003C08AC00AD01AE01AF01E2
:10161A002C08B2072D08B33D2E08B43D2F08B53D5E
:10162A003D08AC00AD01AE01AF012C08B8072D088A
:10163A00B93D2E08BA3D2F08BB3D0830B235B30D6F
:10164A00B40DB50D890B232B2508AC002C08F0002E
:10165A0028089E3109268A3171082000BD007008C9
:10166A00BC003C08B2073D08B33D0030B43DB53D6F
:10167A002408AC002C08F00029089E3109268A317A
:10168A0071082000BD007008BC003C08B2073D0884
:10169A00B33D0030B43DB53D0830B235B30DB40D9D
:1016AA00B50D890B522B2408AC002C08F000280831
:1016BA009E3109268A3171082000BD007008BC00DD
:1016CA003C08B2073D08B33D0030B43DB53D25089E
:1016DA00AC002C08F0002A089E3109268A317108CC
:1016EA002000BD007008BC003C08B8073D08B93DA1
:1016FA000030BA3DBB3D2608AC002C08F000290892
:10170A009E3109268A3171082000BD007008BC008C
:10171A003C08B8073D08B93D0030BA3DBB3D260834
:10172A00AC002C08F0002A089E3109268A3171087B
:10173A002000BD007008BC003C08AC003D08AD00AC
:10174A00AE01AF010830AC35AD0DAE0DAF0D890B52
:10175A00A82B2C08B8072D08B93D2E08BA3D2F082A
:10176A00BB3D3208AC003308AD003408AE00350882
:10177A00AF001830AF36AE0CAD0CAC0C890BBF2BDA
:10178A002C08B8072D08B93D2E08BA3D2F08BB3DD5
:10179A000830B235B30DB40DB50D890BCE2B370811
:1017AA003607AC00AD01AD0D2C08823EBC00FF30FF
:1017BA002D3DBD00BA1BF62B0130B835B90DBA0D57
:1017CA00BB0D890BE22BB51B38140130B235B30DB2
:1017DA00B40DB50D890BEB2BFF30BC07FF30BD3DB7
:1017EA00DF2BB601B51F0F2CFF303205AC00FF30DE
:1017FA003305AD00FF303405AE007F303505AF004C
:10180A002F082E042D042C04031938180D2C0F2C24
:10181A00B601B60A36080319382C0130B807003069
:10182A00B93D0030BA3D0030BB3D3B1C382C38086E
:10183A00AC003908AD003A08AE003B08AF000130F1
:10184A00B000AF37AE0CAD0CAC0CB00B262C2F0889
:10185A00BB002E08BA002D08B9002C08B8000130C8
:10186A00BC070030BD3D3D08803AAC0080302C02F8
:10187A00031D412CFF303C02031C4D2C7F302000FD
:10188A00BB008030BA000030B9000030B800772CB5
:10189A0020003D08803AAC0080302C02031D572CF2
:1018AA0001303C020318642C00302000BB000030D9
:1018BA00BA000030B9000030B800B101772C20001E
:1018CA003C08AC002C08B700FF30B805FF30B9055A
:1018DA007F30BA050030BB053718BA173736AC0067
:1018EA002C08BB003108AC002C08BB043B08A7003D
:1018FA003A08A6003908A5003808A4000800210003
:10190A00500A86008701160001040319992C303009
:10191A00AE002E08F100500A86008701413F8A0076
:10192A00403F0A008C31AB2C3030AE0050088600A4
:10193A00870101088600013087002E0881000130E6
:10194A00AE005008860087012E088107FF3021006B
:10195A00C307FF30C43D4408803AAE0080302E02EF
:10196A00031DB92C013043020318842C21003C08C2
:10197A00803AAE0080302E02031DC52C09303B028E
:10198A00031CCA2C08302100CC2C21003B08AE00D5
:10199A002E08CF004F08AE00AF012E08BB022F0859
:1019AA00BC3B4F080319FF2C500A8600870116001A
:1019BA0001040319ED2C2E30AE002E08F100500A56
:1019CA0086008701413F8A00403F0A008C31FF2C84
:1019DA002E30AE00500886008701010886000130CB
:1019EA0087002E0881000130AE005008860087016A
:1019FA002E08810721004F0880314D208C312000AC
:101A0A0041082100B700200040082100B60020004C
:101A1A003F082100B50020003E082100B400370825
:101A2A002000AB00210036082000AA00210035085A
:101A3A002000A900210034082000A80021004C0839
:101A4A002000A70021004B082000A60021004A0818
:101A5A002000A500210049082000A4008A3158224C
:101A6A008C3120002708D6002608D5002508D40086
:101A7A002408D3009131C7218C3120005608210057
:101A8A00C200200055082100C1002000540821008E
:101A9A00C000200053082100BF000130CF024F0AC6
:101AAA000319382E4F08AE00AF01AE35AF0DAE3573
:101ABA00AF0D68302E07840098302F3D8500003F17
:101ACA00F000013FF100023FF200033FF300420839
:101ADA00F7004108F6004008F5003F08F40090318D
:101AEA006E208C3173082100C8007208C700710883
:101AFA00C6007008C50000302000A3000030A20014
:101B0A000030A1000A30A000210048082000A700E8
:101B1A00210047082000A600210046082000A50051
:101B2A00210045082000A4009F31BD278C312000E8
:101B3A0023082100C800200022082100C700200035
:101B4A0021082100C600200020082100C500500AF3
:101B5A0086008701160001040319C12D4508303E8D
:101B6A00AE002E08F100500A86008701413F8A0024
:101B7A00403F0A008D31D42D4508303EAE00500852
:101B8A008600870101088600013087002E0881003F
:101B9A000130AE005008860087012E088107210017
:101BAA004F08AE00AF01AE35AF0DAE35AF0D6830A0
:101BBA002E07840098302F3D8500003F2000A000AA
:101BCA00013FA100023FA200033FA30021004208F7
:101BDA002000A700210041082000A600210040089B
:101BEA002000A50021003F082000A4009F31BD2746
:101BFA008C31200023082100C20020002208210085
:101C0A00C100200021082100C00020002008502D1A
:101C1A00500A86008701160001040319212E30306C
:101C2A00AE002E08F100500A86008701413F8A0063
:101C3A00403F0A008E31332E3030AE005008860005
:101C4A00870101088600013087002E0881000130D3
:101C5A00AE005008860087012E088107FF30210058
:101C6A00BB07FF30BC3D3B083C040319FE2F0D2E79
:101C7A0020006F0886008701010884008501023070
:101C8A008107003F2100AE00013FAF002E08BF00D0
:101C9A002F08C000890D893B8909C100C200C21FF3
:101CAA00652E0330BD040030BE04BF09C009C10956
:101CBA00C209BF0A0319C00A0319C10A0319C20AD1
:101CCA00CF01CF0A0A304F060319982E4F08AE00EB
:101CDA00AF01AE35AF0DAE35AF0D68302E078400BB
:101CEA0098302F3D8500003FB000013FB100023F10
:101CFA00B200033FB30033084202031D8E2E32089E
:101D0A004102031D8E2E31084002031D8E2E30081B
:101D1A003F02031C982E0130AE002E08CF070A306E
:101D2A004F06031D6B2E4D084E040319AA2E0330CD
:101D3A003D05AE0000303E05AF002E082F04031902
:101D4A00AA2EFF30CD07FF30CE3D4E08803A803CA8
:101D5A00031DB12E4D084F020318BC2E21004F0857
:101D6A00AE00AF012E08CD022F08CE3BBF2E2100B8
:101D7A00CD01CE013D1D222F03303D05AE000030BE
:101D8A003E05AF002E082F040319F12E500A8600D3
:101D9A008701160001040319DF2E2D30AE002E082C
:101DAA00F100500A86008701413F8A00403F0A003D
:101DBA008E31F12E2D30AE005008860087010108C1
:101DCA008600013087002E0881000130AE005008DD
:101DDA00860087012E08810721004D084E04031949
:101DEA00852F500A860087011600010403190A2F5D
:101DFA003030AE002E08F100500A86008701413FBC
:101E0A008A00403F0A008F311C2F3030AE00500844
:101E1A008600870101088600013087002E088100AC
:101E2A000130AE005008860087012E088107FF3076
:101E3A002100CD07FF30CE3DF22E4D084E04031986
:101E4A00552F500A860087011600010403193A2FFC
:101E5A002030AE002E08F100500A86008701413F6B
:101E6A008A00403F0A008F314C2F2030AE005008C4
:101E7A008600870101088600013087002E0881004C
:101E8A000130AE005008860087012E088107FF3016
:101E9A002100CD07FF30CE3D4D084E04031D262FED
:101EAA0003303D05AE0000303E05AF002E082F047A
:101EBA000319852F500A86008701160001040319A9
:101ECA00732F2D30AE002E08F100500A86008701CC
:101EDA00413F8A00403F0A008F31852F2D30AE00E6
:101EEA0050088600870101088600013087002E0805
:101EFA0081000130AE005008860087012E08810754
:101F0A0021004F08AE00AF012E08BB002F08BC000D
:101F1A00FF302100BB07FF30BC3D3B0A03193C0AD6
:101F2A000319FE2F00302000A3000030A200003069
:101F3A00A1000A30A00021003C0885003B0884006B
:101F4A008435850D8435850D683084079830853D44
:101F5A00003FF000013FF100023FF200033FF300AF
:101F6A004208F7004108F6004008F5003F08F4006F
:101F7A0090316E208C3173082000A7007208A600E9
:101F8A007108A5007008A4009F31BD278C3120007C
:101F9A002008303E2100AE002E08CF00500A8600ED
:101FAA008701160001040319E72F4F08AE002E0817
:101FBA00F100500A86008701413F8A00403F0A002B
:101FCA008F318D2F4F08AE00500886008701010817
:101FDA008600013087002E0881000130AE005008CB
:101FEA00860087012E0881078D2F2000ED01EE0162
:101FFA0008008231BD2A71082100ED007008EC004A
:10200A0008002100D8005808D7005708DA00DB0179
:10201A00DC01D330D7005708D90052082000EE005F
:10202A00210051082000ED00D9302100D7005708BF
:10203A002000EF00DA308231BB2221005A088600E4
:10204A000130870081010800F601F31F3328F209E5
:10205A00F309F20A0319F30AF601F60AF11F3A28FC
:10206A00F009F109F00A0319F10A70087104031959
:10207A006128F501F50AF11B4C280130F035F10D04
:10208A00890B43280130F4007408F50740287108C9
:10209A007302031D522870087202031C5828700824
:1020AA00F2027108F33B0130F136F00C890B592822
:1020BA000130F502031D4C28760803196928F20934
:1020CA00F309F20A0319F30A7308F1007208F0001F
:1020DA0008000030FC000030FB000030FA0000303D
:1020EA00F90073087204710470040319B728FD011A
:1020FA00FD0AF31B8C280130F035F10DF20DF30DBA
:10210A00890B81280130F8007808FD077E28013004
:10211A00F935FA0DFB0DFC0D890B8D287308770232
:10212A00031DA12872087602031DA12871087502F1
:10213A00031DA12870087402031CAC287008F4025D
:10214A007108F53B7208F63B7308F73B79140130C6
:10215A00F336F20CF10CF00C890BAD280130FD02BC
:10216A00031D8C287C08F3007B08F2007A08F10032
:10217A007908F00008002000A101F81FCB28F70910
:10218A00F809F70A0319F80AA101A10AFA1FD628C1
:10219A00F909FA09F90A0319FA0A0130FB007B085E
:1021AA00A106A201A3017708780403190529A00151
:1021BA00A00AF81BEA280130F735F80D890BE12847
:1021CA000130FB007B08A007DE280130A235A30DF1
:1021DA00890BEB2878087A02031DF528770879021B
:1021EA00031CFC287708F9027808FA3B221401300C
:1021FA00F836F70C890BFD280130A002031DEA28E6
:10220A00210803190D29A209A309A20A0319A30A7D
:10221A002308F8002208F7000800F3002400951AA2
:10222A0068290E303C00A0000D30A10010303D009E
:10223A009E007308F000F101F035F10DF035F10D53
:10224A00E530700784009830713D8500000824004D
:10225A0094007308F000F101F035F10DF035F10D3D
:10226A00E430700784009830713D850000082038FA
:10227A00950096017308F000F101F035F10DF03583
:10228A00F10DE630700784009830713D8500000832
:10229A0092007308F000F101F035F10DF035F10DFF
:1022AA00E730700784009830713D85000008F2001D
:1022BA00F20EF20DF20D21000D087206BF397206F8
:1022CA008D00013008000030080020000D1A6A292C
:1022DA0000320032F0019D31AE259131F5007508CA
:1022EA002000A800F0019D31AE259131F500750856
:1022FA002000A700F0019D31AE259131F500750847
:10230A002000A600A401A50121006B08F500F60132
:10231A00760820002502031D942975082402031853
:10232A00A42922000D170032003222000D130032B8
:10233A00003201302000A4070030A53D8929A81FDA
:10234A00B6292609A0002709A1002809A2002909FF
:10235A00A300A00A0319A10A0319A20A0319A30ACE
:10236A00BE292908A3002808A2002708A1002608D8
:10237A00A0002308F4002208F3002108F200200834
:10238A00F100080003102000550D560DD70057081C
:10239A00DD005D08031DDA290030D6000030D500C3
:1023AA000030D4000030D30008005308D700540886
:1023BA00D8005508D9005608DA001F30DA36D90C89
:1023CA00D80CD70C890BE3295708DB005B08DC0023
:1023DA00D517FF30D305FF30D405FF30D5050030BF
:1023EA00D6059630DD02DD1F0D2A5D08803A973E3C
:1023FA00031CD1290130D636D50CD40CD30C890B49
:10240A00002A0130D7005708DD0703191E2AFF29C1
:10241A0020305D020318D1295D0803191E2A0130F4
:10242A00D335D40DD50DD60D890B152A0130DD0211
:10243A00112A5C0803190800D309D409D509D60959
:10244A00D30A0319D40A0319D50A0319D60A0800AC
:10245A0000307005F80000307105F900803072050F
:10246A00FA007F307305FB007B087A04790478044C
:10247A00031D472A0030F3000030F2000030F1005B
:10248A000030F00000307405F80000307505F900DE
:10249A0080307605FA007F307705FB007B087A04E6
:1024AA0079047804031D612A0030F7000030F60031
:1024BA000030F5000030F400F31F7B2A0030F800EA
:1024CA000030F9000030FA008030FB007008F80292
:1024DA007108F93B7208FA3B7308FB3B7B08F3006F
:1024EA007A08F2007908F1007808F000F71F952AB7
:1024FA000030F8000030F9000030FA008030FB00AC
:10250A007408F8027508F93B7608FA3B7708FB3B32
:10251A007B08F7007A08F6007908F5007808F400D5
:10252A008030F3068030F70677087302031D08002F
:10253A0076087202031D080075087102031D08005F
:10254A007408700208002100A1000030A5000030C4
:10255A00A4000030A3000030A200A001210820023C
:10256A000318012B91316A2192317408FA00730819
:10257A00F9007208F8007108F70001309331382326
:10258A0092317A082000D4007908D3007808D20062
:10259A007708D100210025082000D800210024084E
:1025AA002000D700210023082000D600210022089D
:1025BA002000D5008831762092312000540821006D
:1025CA00A500200053082100A40020005208210081
:1025DA00A300200051082100A2009C302000E9003D
:1025EA00D730890BF62AE90BF62A01302000E900D8
:1025FA0069082100A007B32A21082000E900EA019E
:10260A00EB01EC016C08FA006B08F9006A08F800A3
:10261A006908F70000309331382392317A08200094
:10262A00B7007908B6007808B5007708B400210029
:10263A0025082000BB00210024082000BA00210040
:10264A0023082000B900210022082000B800953193
:10265A00052520003708E8003608E7003508E600B7
:10266A003408E50008002000AE002E08031DFA1FFA
:10267A004E2B7709B0007809B1007909B2007A09BE
:10268A00B300B00A0319B10A0319B20A0319B30A4B
:10269A00562B7A08B3007908B2007808B100770897
:1026AA00B0007A08790478047704031D652B00309A
:1026BA00FA000030F9000030F8000030F700080096
:1026CA009630AA002A08AF00FE30330503198C2B76
:1026DA000130AA002A08AF070130B336B20CB10C98
:1026EA00B00C890B722B692B0130AA002A08AF079C
:1026FA000130B0070030B13D0030B23D0030B33D8B
:10270A000130B336B20CB10CB00C890B862BFF30FA
:10271A00330503199E2B792B02302F02031CA02BA1
:10272A000130AF020130B035B10DB20DB30D890BD6
:10273A00982BB21F912B2F18AA2BFF30B005FF3010
:10274A00B1057F30B205FF30B3050310AF0C2F0877
:10275A00AA00AB01AC01AD011830AA35AB0DAC0D26
:10276A00AD0D890BB22B2A08B0042B08B1042C0832
:10277A00B2042D08B3042E08031DFA1FC52BB31784
:10278A003308FA003208F9003108F8003008F70077
:10279A0008000310720D730DF80078082000A500D8
:1027AA002508031DE12B0030F3000030F200003051
:1027BA00F1000030F00008000310760D770DF800E4
:1027CA007808A40024080319D82BF217FF30F00563
:1027DA00FF30F105FF30F2050030F305F617FF3040
:1027EA00F405FF30F505FF30F6050030F705003037
:1027FA00A3000030A2000030A1000030A0007F300A
:10280A00A502A0302407F8007808A5022030F800B5
:10281A007808A4000130A035A10DA20DA30D890BE3
:10282A00102C77087302031D242C76087202031DEC
:10283A00242C75087102031D242C74087002031CD1
:10284A002F2C7408F0027508F13B7608F23B7708E2
:10285A00F33B20140130F035F10DF20DF30D890B25
:10286A00302C0130A402031D0F2CA51F4F2C250864
:10287A00803A9F3E031CD82B0130A336A20CA10C30
:10288A00A00C890B422C0130F8007808A50703191F
:10289A00602C412C203025020318D82B2508031957
:1028AA00602C0130A035A10DA20DA30D890B572C68
:1028BA000130A502532C2308F3002208F200210854
:1028CA00F1002008F00008007008F8007108F9000B
:1028DA007208FA000310790D7A0DFB007B082000BC
:1028EA00A5002508031D822C0030F3000030F200F9
:1028FA000030F1000030F00008007408F800750894
:10290A00F9007608FA000310790D7A0DFB007B08AE
:10291A00A40024080319792CF117FF30F005FF30C1
:10292A00F1050030F205F517FF30F405FF30F50523
:10293A000030F6050030A3000030A2000030A100EC
:10294A000030A0007F30A50298302407F8007808EC
:10295A00A5021830F8007808A4000130A035A10DAE
:10296A00A20DA30D890BB32C76087202031DC32C8A
:10297A0075087102031DC32C74087002031CCC2C49
:10298A007408F0027508F13B7608F23B2014013016
:10299A00F035F10DF20D890BCD2C0130A402031D87
:1029AA00B22CA51FEB2C2508803A973E031C792CE4
:1029BA000130A336A20CA10CA00C890BDE2C01302D
:1029CA00F8007808A5070319FC2CDD2C183025021D
:1029DA000318792C25080319FC2C0130A035A10D08
:1029EA00A20DA30D890BF32C0130A502EF2C2308AD
:1029FA00F3002208F2002108F1002008F000080084
:102A0A0020003B088039BC003C08C5003B35BC00AF
:102A1A003C08CC00BA1B4C144C080319222D4C0A52
:102A2A00031D1F2D0030BB000030BA000030B90072
:102A3A000030B800BA17BB012A2D0030BB000030A5
:102A4A00BA000030B9000030B80037088039BC003D
:102A5A003C08C5063735BC003C08CD00B61B4D14F2
:102A6A004D080319462D4D0A031D432D0030B700AA
:102A7A000030B6000030B5000030B400B617B70118
:102A8A004E2D0030B7000030B6000030B5000030DF
:102A9A00B4003708360435043404031D6D2D0030A4
:102AAA00BB000030BA000030B9000030B8008030F6
:102ABA00BA047F30BB044508BC003C08BB043B0891
:102ACA00B7003A08B6003908B5003808B40008005B
:102ADA004C08031D792D0030B7000030B6000030D5
:102AEA00B5000030B40008004C08BC00BD013D0828
:102AFA00BF004D083C02BE00031CBF033E087F3ED8
:102B0A00C60000303F3DC7003B08C4003A08C30076
:102B1A003908C2003808C1000030BB000030BA00D2
:102B2A000030B9000030B8000030CB000030CA00D5
:102B3A000030C9000030C800CD011A304D02031818
:102B4A00DE2D4D080319C02D0130C135C20DC30D4C
:102B5A00C40D890BAA2D0130B835B90DBA0DBB0DBC
:102B6A00890BB12DCB1B38140130C835C90DCA0DDC
:102B7A00CB0D890BBA2D37084402031DCE2D36081A
:102B8A004302031DCE2D35084202031DCE2D340803
:102B9A004102031CD92D4B173408C1023508C23B28
:102BAA003608C33B3708C43B0130BC003C08CD079C
:102BBA00A22D4408430442044104031D4814BA1BCD
:102BCA00FB2D0130B835B90DBA0DBB0D890BE72DB8
:102BDA00CB1B38140130C835C90DCA0DCB0D890B72
:102BEA00F02DFF30C607FF30C73DE42DCD01CB1FC6
:102BFA00142EFF304805BC00FF304905BD00FF30E8
:102C0A004A05BE007F304B05BF003F083E043D0425
:102C1A003C0403193818122E142ECD01CD0A4D0882
:102C2A0003193D2E0130B8070030B93D0030BA3DD6
:102C3A000030BB3D3B1C3D2E3808BC003908BD00A6
:102C4A003A08BE003B08BF000130C000BF37BE0CC7
:102C5A00BD0CBC0CC00B2B2E3F08BB003E08BA00B3
:102C6A003D08B9003C08B8000130C6070030C73D2E
:102C7A004708803ABC0080303C02031D462EFF30D4
:102C8A004602031C552EFF302000C6000030C70044
:102C9A000030BB000030BA000030B9000030B80084
:102CAA0020004708803ABC0080303C02031D5F2E9A
:102CBA000130460203186D2E2000C601C7010030FC
:102CCA00BB000030BA000030B9000030B800C501BE
:102CDA0020004608BC003C08CC004C1C762EBA17D3
:102CEA007A2E7F30BC003C08BA054C36BC003C0842
:102CFA00BB00602D2000D0006E305002031C4D2F07
:102D0A003F30A7000030A6000030A5000030A40024
:102D1A006430F6000030F7005008C200C3014208D0
:102D2A00F8004308F9009E31DA26963177088500C3
:102D3A00760884008435850D8435850D7C308407BA
:102D4A009830853D003F2000C400013FC500023F86
:102D5A00C600033FC7004708AB004608AA0045085B
:102D6A00A9004408A8008A31582296312000270871
:102D7A00CF002608CE002508CD002408CC000A3052
:102D8A00F6000030F7005008C200C3014208F20002
:102D9A004308F3006430F0000030F1009E31492608
:102DAA0096317108F9007008F8009E31DA269631DA
:102DBA0077088500760884008435850D8435850D6D
:102DCA00583084079830853D003F2000C400013FF9
:102DDA00C500023FC600033FC7004708A7004608D0
:102DEA00A6004508A5004408A4004F08AB004E08F9
:102DFA00AA004D08A9004C08A8008A315822963129
:102E0A0020002708CB002608CA002508C900240884
:102E1A00C8000A30F0000030F1005008C200C301B7
:102E2A004208F2004308F3009E31492696317108A0
:102E3A008500700884008435850D8435850D34300D
:102E4A0084079830853D003F2000C400013FC5003B
:102E5A00023FC600033FC7004708A7004608A6006E
:102E6A004508A5004408A4004B08AB004A08AA007C
:102E7A004908A9004808A8008A31582220002708D2
:102E8A00C1002608C0002508BF002408BE000800AB
:102E9A000B305002031CCF2F3F30A7000030A60092
:102EAA000030A5000030A4000A30F6000030F70018
:102EBA005008C200C3014208F8004308F9009E31D5
:102ECA00DA26963177088500760884008435850DE0
:102EDA008435850D583084079830853D003F2000A1
:102EEA00C400013FC500023FC600033FC7004708B0
:102EFA00AB004608AA004508A9004408A8008A3180
:102F0A005822963120002708CF002608CE0025082F
:102F1A00CD002408CC000A30F0000030F10050083F
:102F2A00C200C3014208F2004308F3009E31492659
:102F3A00963171088500700884008435850D8435C2
:102F4A00850D343084079830853D003F2000C40049
:102F5A00013FC500023FC600033FC7004708A7005C
:102F6A004608A6004508A5004408A4004F08AB007F
:102F7A004E08AA004D08A9004C08A8008A31582218
:102F8A0020002708C1002608C0002508BF00240821
:102F9A00BE0008003F30A7000030A6000030A500A0
:102FAA000030A4005008C200C301C235C30DC235A7
:102FBA00C30D3430420784009830433D8500003FFA
:102FCA00C400013FC500023FC600033FC7004708CF
:102FDA00AB004608AA004508A9004408A8008A319F
:102FEA00582220002708C1002608C0002508BF0073
:102FFA002408BE0008000034003480343F34003412
:10300A0000342034413400340034C83442340034AB
:10301A0000347A344434003440341C3446340034A6
:10302A005034C3344734003424347434493480343B
:10303A00963418344B342034BC34BE344C342834DF
:10304A006B346E344E34F934023415345034EC3463
:10305A007834AD346034CA34F234493471340034CB
:10306A00003480343F34CD34CC34CC343D340A344B
:10307A00D73423343C346F34123483343A3417341B
:10308A00B734D1343834AC34C53427343734BD344A
:10309A003734863435349534BF34D63433347734C0
:1030AA00CC342B3432345F34703489343034FF34C6
:1030BA00E634DB342E340834E5343C341E346034D0
:1030CA004234A2340D3401340034003400340A345A
:1030DA000034003400346434003400340034E834FA
:1030EA000334003400341034273400340034A0345C
:1030FA00863401340034403442340F34003480348E
:10310A009634983400340034E134F534053400340C
:10311A00CA349A343B340034003400340034AE34B8
:10312A001D340034003400340034003400340034D8
:10313A00003400340034003400340034003448349D
:10314A00583437343134313420346E346F34743473
:10315A00203466346F3475346E3464342E340A3451
:10316A0000345034723465347034613472346934E2
:10317A006E34673420344834583437343134313477
:10318A003A34203400344834583437343134313402
:10319A002034723465346134643469346E3467348B
:1031AA003A34203400340034003428341E340034D5
:1031BA00003400340034003400348E341D340A34B0
:1031CA004034013400340A340034013400342534E4
:1031DA00303433346934203420340A34003425340A
:1031EA00303433346934203420340034253466349E
:0631FA0020340A34003409
:103ADE000034003480343F34033471082200DB009C
:103AEE007008DA00080071082100EF007008EE007F
:103AFE000800031020000D1E03140030093D0800BD
:103B0E007A302100990098012200960108002000C9
:103B1E00101E8E2D700823009A0008007108F20006
:103B2E007208F0009D318E2508009E3175269D315C
:103B3E009D3187259D319E31282608007308720419
:103B4E0071047004031908008030F3060800700831
:103B5E00240091002000901DB12D90112400110819
:103B6E00080073082100EA007208E9007108E800F5
:103B7E007008E7000800200061082100E000200026
:103B8E0060082100DF0020005F082100DE00200019
:103B9E005E082100DD000800F401F501701CDB2D2C
:103BAE007208F4077308F53D0130F235F30D890BF9
:103BBE00DC2D0130F136F00C890BE12D700871040B
:103BCE00031DD52D7508F1007408F00008002100C2
:103BDE00D7019530D8001D30D900D330D500550807
:103BEE00D60052082000EE00210051082000ED0002
:103BFE00D6302100D50055082000EF00D730823195
:103C0E00BB220800F800F401F5017008F200F30180
:103C1E007208F6007308F700781C192E7608F40760
:103C2E007708F53D0130F635F70D890B1A2E031086
:103C3E00F80C7808031D132E7508F1007408F000B7
:103C4E000800083023009F0090309D0024309E0015
:103C5E0022309B009C010030F0000030F1009D31BD
:103C6E007A259E310030F0000030F10090310020B6
:103C7E009E310030F0000030F1009D31742521009E
:103C8E00E6010800700871040319702EF501F50A9B
:103C9E00F11B5B2E0130F035F10D890B522E0130E8
:103CAE00F4007408F5074F2E71087302031D612E80
:103CBE0070087202031C672E7008F2027108F33B43
:103CCE000130F136F00C890B682E0130F502031D20
:103CDE005B2E7308F1007208F000080022008C01C0
:103CEE008D018E01333021008C00B0308D00FF30FD
:103CFE008E00CE3023008E0080308D0013308C006D
:103D0E0024008D018C018E012100951325008C015C
:103D1E008D018E01373026008C00F0308D00FF3083
:103D2E008E0010303C00A4000D30A10010303D007C
:103D3E009E00123092000E303C00A00008002100C0
:103D4E00AA002A089231A8229E312000680821007C
:103D5E00A900200067082100A800200066082100A5
:103D6E00A700200065082100A60029082000D60023
:103D7E00210028082000D500210027082000D400AB
:103D8E00210026082000D3009131C7219E3120004A
:103D9E005608E1005508E0005408DF005308DE0025
:103DAE009D31C2250800FB01FC017608770403193A
:103DBE00092FFD01FD0AF71BEE2E0130F635F70D2A
:103DCE00890BE52E0130FA007A08FD07E22E01304C
:103DDE00FB35FC0D890BEF2E77087902031DF92EAA
:103DEE0076087802031C002F7608F8027708F93B54
:103DFE007B140130F736F60C890B012F0130FD02D2
:103E0E00031DEE2E7C08F7007B08F60008008030BC
:103E1E002100A9062D082000D40021002C08200026
:103E2E00D30021002B082000D20021002A082000F8
:103E3E00D100210029082000D800210028082000E8
:103E4E00D700210027082000D600210026082000D8
:103E5E00D50088317620200054082100A9002000CA
:103E6E0053082100A800200052082100A7002000BE
:103E7E0051082100A60008002000ED002100600876
:103E8E00FA005F08F9005E08F8005D08F7000130DF
:103E9E00933138239F317A082100A9007908A800B0
:103EAE007808A7007708A60020006D089231A82296
:103EBE009F31200068082100AD0020006708210016
:103ECE00AC00200066082100AB0020006508210030
:103EDE00AA009F310E2721002908B1002808B00042
:103EEE002708AF002608AE0008002100BC003C08E1
:103EFE009F3143279F3121003108BB003008BA00A3
:103F0E002F08B9002E08B8006A082000B70021005B
:103F1E0069082000B600210068082000B5002100C5
:103F2E0067082000B40021003B082000BB002100E0
:103F3E003A082000BA00210039082000B9002100FB
:103F4E0038082000B80095310525200037082100DB
:103F5E00B600200036082100B500200035082100EB
:103F6E00B400200034082100B3000800200023080C
:103F7E002204210420040319F72FA901A90AA31B67
:103F8E00D42F0130A035A10DA20DA30D890BC92F81
:103F9E000130A8002808A907C62F23082702031DF1
:103FAE00E22F22082602031DE22F21082502031DFF
:103FBE00E22F20082402031CEC2F2008A402210863
:103FCE00A53B2208A63B2308A73B0130A336A20C33
:103FDE00A10CA00C890BED2F0130A902031DD42FCB
:103FEE002708A3002608A2002508A1002408A00087
:023FFE000800B9
:020000040001F9
:06000E00FC3FFF1E9F3FB6
:00000001FF
